{
  "hash": "3aa6bdbd800309fb4bd423375fb7bc51d3d6f07c126ca26061406a46f22f4ed1",
  "confirmations": 101,
  "height": 1,
  "version": 536870912,
  "versionHex": "20000000",
  "merkleroot": "921a6cf8e083b57b9a63067aa0ab16ed4679929dc874b4af8fb229f7f48b9aa2",
  "time": 1714474026,
  "mediantime": 1714474026,
  "nonce": 4,
  "bits": "207fffff",
  "difficulty": 4.656542373906925e-10,
  "chainwork": "0000000000000000000000000000000000000000000000000000000000000004",
  "nTx": 1,
  "previousblockhash": "0f9188f13cb7b2c71f2a335e3a4fc328bf5beb436012afca590b1a11466e2206",
  "nextblockhash": "71144bceb7d339d782dda2ab7d13df630e399cb31a4b6d18f4be474d9cacd4c5",
  "strippedsize": 212,
  "size": 248,
  "weight": 884,
  "tx": [
    {
      "txid": "921a6cf8e083b57b9a63067aa0ab16ed4679929dc874b4af8fb229f7f48b9aa2",
      "hash": "ca4635d1ed833672627aeb0938d16b158f725ebccd56c8eda9e0896e46979ba7",
      "version": 2,
      "size": 167,
      "vsize": 140,
      "weight": 560,
      "locktime": 0,
      "vin": [
        {
          "coinbase": "5100",
          "txinwitness": [
            "0000000000000000000000000000000000000000000000000000000000000000"
          ],
          "sequence": 4294967295
        }
      ],
      "vout": [
        {
          "value": 50.00000000,
          "n": 0,
          "scriptPubKey": {
            "asm": "0 907ee8b73f268afa5fccabeaaf17c3d49b3559a3",
            "desc": "addr(bcrt1qjplw3dely6905h7v4042797r6jdn2kdr2l6zjc)#2uhw2ap7",
            "hex": "0014907ee8b73f268afa5fccabeaaf17c3d49b3559a3",
            "address": "bcrt1qjplw3dely6905h7v4042797r6jdn2kdr2l6zjc",
            "type": "witness_v0_keyhash"
          }
        },
        {
          "value": 0.00000000,
          "n": 1,
          "scriptPubKey": {
            "asm": "OP_RETURN aa21a9ede2f61c3f71d1defd3fa999dfa36953755c690689799962b48bebd836974e8cf9",
            "desc": "raw(6a24aa21a9ede2f61c3f71d1defd3fa999dfa36953755c690689799962b48bebd836974e8cf9)#cav96mf3",
            "hex": "6a24aa21a9ede2f61c3f71d1defd3fa999dfa36953755c690689799962b48bebd836974e8cf9",
            "type": "nulldata"
          }
        }
      ],
      "hex": "020000000001010000000000000000000000000000000000000000000000000000000000000000ffffffff025100ffffffff0200f2052a01000000160014907ee8b73f268afa5fccabeaaf17c3d49b3559a30000000000000000266a24aa21a9ede2f61c3f71d1defd3fa999dfa36953755c690689799962b48bebd836974e8cf90120000000000000000000000000000000000000000000000000000000000000000000000000"
    }
  ]
}