{
  "hash": "40e9fed0e3d7734793da8fa5012c9fbc51e1bb7a95d5bd726b4a331b48701799",
  "confirmations": 2,
  "height": 100,
  "version": 536870912,
  "versionHex": "20000000",
  "merkleroot": "d53350f37076e5cc2b4353742ad3d626307a42f8a3028f77a343b85329167204",
  "time": 1714474049,
  "mediantime": 1714474048,
  "nonce": 0,
  "bits": "207fffff",
  "difficulty": 4.656542373906925e-10,
  "chainwork": "00000000000000000000000000000000000000000000000000000000000000ca",
  "nTx": 1,
  "previousblockhash": "25f3185c3d9c7e7330363d4a8cbe27647f289fb1513d7bc419b97bd462f94359",
  "nextblockhash": "70f40d15f3f1d99171c33ca173a2a1330370584869923ea253082c3da0b17204",
  "strippedsize": 213,
  "size": 249,
  "weight": 888,
  "tx": [
    {
      "txid": "d53350f37076e5cc2b4353742ad3d626307a42f8a3028f77a343b85329167204",
      "hash": "55ad28dbeacd99fd8740417109c20c90392dd06957751aafccba8d2e22dcd255",
      "version": 2,
      "size": 168,
      "vsize": 141,
      "weight": 564,
      "locktime": 0,
      "vin": [
        {
          "coinbase": "016400",
          "txinwitness": [
            "0000000000000000000000000000000000000000000000000000000000000000"
          ],
          "sequence": 4294967295
        }
      ],
      "vout": [
        {
          "value": 50.00000000,
          "n": 0,
          "scriptPubKey": {
            "asm": "0 907ee8b73f268afa5fccabeaaf17c3d49b3559a3",
            "desc": "addr(bcrt1qjplw3dely6905h7v4042797r6jdn2kdr2l6zjc)#2uhw2ap7",
            "hex": "0014907ee8b73f268afa5fccabeaaf17c3d49b3559a3",
            "address": "bcrt1qjplw3dely6905h7v4042797r6jdn2kdr2l6zjc",
            "type": "witness_v0_keyhash"
          }
        },
        {
          "value": 0.00000000,
          "n": 1,
          "scriptPubKey": {
            "asm": "OP_RETURN aa21a9ede2f61c3f71d1defd3fa999dfa36953755c690689799962b48bebd836974e8cf9",
            "desc": "raw(6a24aa21a9ede2f61c3f71d1defd3fa999dfa36953755c690689799962b48bebd836974e8cf9)#cav96mf3",
            "hex": "6a24aa21a9ede2f61c3f71d1defd3fa999dfa36953755c690689799962b48bebd836974e8cf9",
            "type": "nulldata"
          }
        }
      ],
      "hex": "020000000001010000000000000000000000000000000000000000000000000000000000000000ffffffff03016400ffffffff0200f2052a01000000160014907ee8b73f268afa5fccabeaaf17c3d49b3559a30000000000000000266a24aa21a9ede2f61c3f71d1defd3fa999dfa36953755c690689799962b48bebd836974e8cf90120000000000000000000000000000000000000000000000000000000000000000000000000"
    }
  ]
}